{
  "_format": "hh-sol-artifact-1",
  "contractName": "CarbonMarketplace",
  "sourceName": "contracts/CarbonMarketplace.sol",
  "abi": [
    {
      "inputs": [
        {
          "internalType": "address",
          "name": "_token",
          "type": "address"
        }
      ],
      "stateMutability": "nonpayable",
      "type": "constructor"
    },
    {
      "inputs": [
        {
          "internalType": "uint256",
          "name": "amount",
          "type": "uint256"
        }
      ],
      "name": "buyCredits",
      "outputs": [],
      "stateMutability": "payable",
      "type": "function"
    },
    {
      "inputs": [],
      "name": "owner",
      "outputs": [
        {
          "internalType": "address",
          "name": "",
          "type": "address"
        }
      ],
      "stateMutability": "view",
      "type": "function"
    },
    {
      "inputs": [],
      "name": "pricePerCredit",
      "outputs": [
        {
          "internalType": "uint256",
          "name": "",
          "type": "uint256"
        }
      ],
      "stateMutability": "view",
      "type": "function"
    },
    {
      "inputs": [
        {
          "internalType": "uint256",
          "name": "amount",
          "type": "uint256"
        }
      ],
      "name": "sellCredits",
      "outputs": [],
      "stateMutability": "nonpayable",
      "type": "function"
    },
    {
      "inputs": [],
      "name": "token",
      "outputs": [
        {
          "internalType": "contract CarbonCreditToken",
          "name": "",
          "type": "address"
        }
      ],
      "stateMutability": "view",
      "type": "function"
    },
    {
      "inputs": [],
      "name": "withdraw",
      "outputs": [],
      "stateMutability": "nonpayable",
      "type": "function"
    }
  ],
  "bytecode": "0x6080604052670de0b6b3a764000060025534801561001c57600080fd5b50604051610b16380380610b16833981810160405281019061003e9190610128565b806000806101000a81548173ffffffffffffffffffffffffffffffffffffffff021916908373ffffffffffffffffffffffffffffffffffffffff16021790555033600160006101000a81548173ffffffffffffffffffffffffffffffffffffffff021916908373ffffffffffffffffffffffffffffffffffffffff16021790555050610155565b600080fd5b600073ffffffffffffffffffffffffffffffffffffffff82169050919050565b60006100f5826100ca565b9050919050565b610105816100ea565b811461011057600080fd5b50565b600081519050610122816100fc565b92915050565b60006020828403121561013e5761013d6100c5565b5b600061014c84828501610113565b91505092915050565b6109b2806101646000396000f3fe6080604052600436106100555760003560e01c80630c4dfe3f1461005a57806322ff23e3146100765780633ccfd60b1461009f5780638da5cb5b146100b6578063f3ab90c3146100e1578063fc0c546a1461010c575b600080fd5b610074600480360381019061006f9190610582565b610137565b005b34801561008257600080fd5b5061009d60048036038101906100989190610582565b610228565b005b3480156100ab57600080fd5b506100b46103fc565b005b3480156100c257600080fd5b506100cb6104f7565b6040516100d891906105f0565b60405180910390f35b3480156100ed57600080fd5b506100f661051d565b604051610103919061061a565b60405180910390f35b34801561011857600080fd5b50610121610523565b60405161012e9190610694565b60405180910390f35b6002548161014591906106de565b3414610186576040517f08c379a000000000000000000000000000000000000000000000000000000000815260040161017d9061077d565b60405180910390fd5b60008054906101000a900473ffffffffffffffffffffffffffffffffffffffff1673ffffffffffffffffffffffffffffffffffffffff1663a9059cbb33836040518363ffffffff1660e01b81526004016101e192919061079d565b6020604051808303816000875af1158015610200573d6000803e3d6000fd5b505050506040513d601f19601f8201168201806040525081019061022491906107fe565b5050565b8060008054906101000a900473ffffffffffffffffffffffffffffffffffffffff1673ffffffffffffffffffffffffffffffffffffffff166370a08231336040518263ffffffff1660e01b815260040161028291906105f0565b602060405180830381865afa15801561029f573d6000803e3d6000fd5b505050506040513d601f19601f820116820180604052508101906102c39190610840565b1015610304576040517f08c379a00000000000000000000000000000000000000000000000000000000081526004016102fb906108b9565b60405180910390fd5b60008054906101000a900473ffffffffffffffffffffffffffffffffffffffff1673ffffffffffffffffffffffffffffffffffffffff166323b872dd3330846040518463ffffffff1660e01b8152600401610361939291906108d9565b6020604051808303816000875af1158015610380573d6000803e3d6000fd5b505050506040513d601f19601f820116820180604052508101906103a491906107fe565b503373ffffffffffffffffffffffffffffffffffffffff166108fc600254836103cd91906106de565b9081150290604051600060405180830381858888f193505050501580156103f8573d6000803e3d6000fd5b5050565b600160009054906101000a900473ffffffffffffffffffffffffffffffffffffffff1673ffffffffffffffffffffffffffffffffffffffff163373ffffffffffffffffffffffffffffffffffffffff161461048c576040517f08c379a00000000000000000000000000000000000000000000000000000000081526004016104839061095c565b60405180910390fd5b600160009054906101000a900473ffffffffffffffffffffffffffffffffffffffff1673ffffffffffffffffffffffffffffffffffffffff166108fc479081150290604051600060405180830381858888f193505050501580156104f4573d6000803e3d6000fd5b50565b600160009054906101000a900473ffffffffffffffffffffffffffffffffffffffff1681565b60025481565b60008054906101000a900473ffffffffffffffffffffffffffffffffffffffff1681565b600080fd5b6000819050919050565b61055f8161054c565b811461056a57600080fd5b50565b60008135905061057c81610556565b92915050565b60006020828403121561059857610597610547565b5b60006105a68482850161056d565b91505092915050565b600073ffffffffffffffffffffffffffffffffffffffff82169050919050565b60006105da826105af565b9050919050565b6105ea816105cf565b82525050565b600060208201905061060560008301846105e1565b92915050565b6106148161054c565b82525050565b600060208201905061062f600083018461060b565b92915050565b6000819050919050565b600061065a610655610650846105af565b610635565b6105af565b9050919050565b600061066c8261063f565b9050919050565b600061067e82610661565b9050919050565b61068e81610673565b82525050565b60006020820190506106a96000830184610685565b92915050565b7f4e487b7100000000000000000000000000000000000000000000000000000000600052601160045260246000fd5b60006106e98261054c565b91506106f48361054c565b92508282026107028161054c565b91508282048414831517610719576107186106af565b5b5092915050565b600082825260208201905092915050565b7f496e636f72726563742045544820616d6f756e74000000000000000000000000600082015250565b6000610767601483610720565b915061077282610731565b602082019050919050565b600060208201905081810360008301526107968161075a565b9050919050565b60006040820190506107b260008301856105e1565b6107bf602083018461060b565b9392505050565b60008115159050919050565b6107db816107c6565b81146107e657600080fd5b50565b6000815190506107f8816107d2565b92915050565b60006020828403121561081457610813610547565b5b6000610822848285016107e9565b91505092915050565b60008151905061083a81610556565b92915050565b60006020828403121561085657610855610547565b5b60006108648482850161082b565b91505092915050565b7f4e6f7420656e6f75676820637265646974730000000000000000000000000000600082015250565b60006108a3601283610720565b91506108ae8261086d565b602082019050919050565b600060208201905081810360008301526108d281610896565b9050919050565b60006060820190506108ee60008301866105e1565b6108fb60208301856105e1565b610908604083018461060b565b949350505050565b7f4e6f7420617574686f72697a6564000000000000000000000000000000000000600082015250565b6000610946600e83610720565b915061095182610910565b602082019050919050565b6000602082019050818103600083015261097581610939565b905091905056fea26469706673582212203649987c87dd3ab13ac521fb4365ab4f4c890d93e90ab364418a8b2d2bf5bdf764736f6c634300081c0033",
  "linkReferences": {},
  "deployedLinkReferences": {}
}